:020000040800F2
:10000000D807002039020008B3230008D51E0008D5
:10001000B1230008E3060008CD2900080000000015
:10002000000000000000000000000000272500087C
:100030000D080008000000002525000829250008FB
:10004000530200085302000853020008530200083C
:10005000530200085302000853020008530200082C
:1000600053020008A90B00085302000853020008BD
:10007000530200085302000853020008530200080C
:1000800053020008530200085302000853020008FC
:1000900053020008530200085302000853020008EC
:1000A00053020008530200085302000853020008DC
:1000B00053020008530200085302000853020008CC
:1000C00053020008530200085302000853020008BC
:1000D00053020008B5290008C1290008530200088E
:1000E000530200085302000853020008530200089C
:1000F000530200085302000853020008530200088C
:10010000530200085302000853020008530200087B
:10011000530200085302000853020008530200086B
:10012000530200085302000853020008530200085B
:10013000530200085302000853020008530200084B
:10014000530200085302000853020008530200083B
:10015000530200085302000853020008530200082B
:10016000530200085302000853020008530200081B
:100170005302000853020008530200080000000068
:10018000530200085302000800F002F800F044F89F
:100190000AA090E8000C82448344AAF10107DA45E2
:1001A00001D100F039F8AFF2090EBAE80F0013F0F0
:1001B000010F18BFFB1A43F0010318475C3700001A
:1001C0007C370000103A24BF78C878C1FAD85207AB
:1001D00024BF30C830C144BF04680C6070470000C1
:1001E0000023002400250026103A28BF78C1FBD840
:1001F000520728BF30C148BF0B607047642900F028
:100200002581732900F02F82002070471FB502F06E
:100210007BFC1FBD10B510BD00F029FA1146FFF799
:10022000F5FF02F011FC00F047FA03B4FFF7F2FF0C
:1002300003BC00F04FFA0000094880470948004716
:10024000FEE7FEE7FEE7FEE7FEE7FEE7FEE7FEE786
:10025000FEE7FEE704480549054A064B70470000E3
:10026000C125000889010008D8010020D807002016
:10027000D8030020D803002053EA020C00F0698064
:100280002DE9F04B4FF00006002B1FBFB3FA83F5AA
:1002900003FA05F424FA05F65E4012BF1643B2FADB
:1002A00082F502FA05F4C5F120051EBF22FA05FC0D
:1002B00044EA0C04203556EA044C4FEA144418BFB3
:1002C000641C4FF000084FF00009904271EB030CE2
:1002D00039D3002919BFB1FA81F701FA07F6B0FA4C
:1002E00080F700FA07F6C7F120071EBF20FA07FCC7
:1002F00046EA0C062037B6FBF4FCA7EB0507103FD7
:1003000007F01F0BCBF120060CFA0BFB2CFA06F6BC
:1003100044BFB3460026202FA4BF5E464FF0000B1B
:100320005BEA060C08BF4FF0010B19EB0B09ABFBA6
:10033000027C48EB0608C01B06FB02CC0BFB03CC7F
:1003400071EB0C01C1E70B46024641464846BDE849
:10035000F08B13B54FF000004FF00001AFF30080B9
:10036000BDE81C40704700000FB41CB5074B06AA3F
:100370007B4469460090059800F04BF900206946DF
:1003800000F05AF91CBC5DF814FB0000C502000027
:100390002DE9F0410E460446002020622046E16827
:1003A000884730B3252805D0D4E901219047206A39
:1003B000401CF2E7E168204600278847050018D076
:1003C000A5F14100192802D820354FF400673246C4
:1003D000294620462760FFF711FF40B1012804D0CD
:1003E000F61D26F007060836D8E7361DD6E728465C
:1003F000DAE7206ABDE8F08170B50C460546012AAF
:1004000005D02878800600D5EA69002302E00123A0
:1004100005E05B1C934202D2E05C0028F9D1A86998
:10042000E618C01AA861286A184428622846AFF363
:10043000008004E0D5E9012114F8010B9047B44293
:10044000F8D32846AFF3008070BD00002DE9F041DD
:100450000646002410687529314616A510D0AFF362
:100460000080002802DA404213A507E031688A07BD
:1004700001D512A502E0490704D511A5012401E028
:10048000AFF3008000210A2206F1240709E0B0FB47
:10049000F2FCB0FBF2F302FB1C003030785418463B
:1004A000491C0028F3D123462A463046BDE8F041D6
:1004B00000F051B8000000002D0000002B000000EB
:1004C0002000000010B5431C02E010F8011B71B1C0
:1004D0008107FAD14FF0013202C88C1A8C4314EA1A
:1004E000C211F9D0C01A0A0603D0C01E10BDC01A2E
:1004F00010BD0A0401D0801E10BD0902FCD0401EB0
:1005000010BD4FF0000200B51346944696462039C0
:1005100022BFA0E80C50A0E80C50B1F12001BFF4BC
:10052000F7AF090728BFA0E80C5048BF0CC05DF822
:1005300004EB890028BF40F8042B08BF704748BF70
:1005400020F8022B11F0804F18BF00F8012B7047E4
:100550007047704770472DE9F0470D46994692461F
:10056000044600F124080168880604D5E06921F0FA
:100570001001216000E00120A84201DD471B00E0DE
:100580000027A1697A1902EB0900081AA0612078F6
:10059000C00602D42046AFF30080002608E0D4E96C
:1005A00001211AF806009047206A401C761C206240
:1005B0004E45F4DB2078C0060AD52046AFF3008014
:1005C00006E0D4E9012130209047206A401C2062D7
:1005D000381EA7F10107F4DC07E0D4E9012118F87F
:1005E00005009047206A401C2062281EA5F10105E5
:1005F000F3DC2046AFF300802078000602D502200D
:10060000BDE8F0870120FBE701694A1C0261087818
:10061000704700B58FB0CDE9013100210591054942
:100620007944CDE9031011466846FFF7B1FE0FB0DB
:1006300000BD0000E5FFFFFF0A6802F8010B0A6039
:10064000704710B5436913B1AFF3008001E0FFF7C5
:10065000D3FE012010BD127800F124010A7000229F
:100660004A700122EDE711684FF0FF32E9E7754665
:1006700000F02CF8AE4605006946534620F007000E
:10068000854618B020B5FFF7E5FDBDE820404FF0E6
:1006900000064FF000074FF000084FF0000B21F06C
:1006A0000701AC46ACE8C009ACE8C009ACE8C00939
:1006B000ACE8C0098D46704710B50446AFF3008022
:1006C0002046BDE81040FFF7B0BD0000004870476D
:1006D0007401002001491820ABBEFEE7260002008D
:1006E0007047FEE72DE9F047474E04464FF400659A
:1006F00000222946304600F0EAFB142000F0B4FA4C
:1007000001222946304600F0E2FB1E2002F08AF961
:1007100000272946304600F0D5FB38B10A2002F008
:1007200081F97F1CFFB20A2FF3D36AE00A2F68D247
:1007300000272946304600F0C5FB78B10A2F60D269
:1007400000272946304600F0BDFB78B10A2002F0B0
:1007500069F97F1CFFB20A2FF3D352E00A2002F09E
:1007600061F97F1CFFB20A2FE3D34AE00A2F48D277
:100770000027A846B1460025AA466806050E0026B1
:100780004146484600F09EFBD0B10A2E1FD20026FB
:100790004146484600F096FB30B10A2002F042F98B
:1007A000761CF6B20A2EF3D3032E01D96D1CEDB2DE
:1007B0000AF1010000F0FF0ABAF1080FDDD307E0EB
:1007C0000A2002F02FF9761CF6B20A2ED8D30125A2
:1007D000E5557F1CFFB2052FCDD3642002F022F92E
:1007E00022786078A1781318E0780D182B442579C9
:1007F000DBB29D4205D16171A071E2710020BDE8BC
:10080000F0870120FBE70000000C02407047000069
:1008100010B51048C2B041680091036882680EA10B
:1008200001A8FFF7A1FD01A8FFF74CFE82B24FF42B
:100830007A74234601A9134801F0FBFA002108232A
:1008400011A2084601F02EFE204600F00DFA42B03B
:1008500010BD00001C00002041542B4D5154545534
:100860005345524346473D302C312C222573222CD0
:10087000222573222C222573222C302C302C22226C
:100880000D0A00002C0100204D51545420436F6E7E
:10089000666967204F4B000010B50E48A0B00EA14E
:1008A000C2686846FFF760FD6846FFF70BFE82B23C
:1008B0004FF47A74234669460E4801F0BAFA0823C9
:1008C0000DA20221002001F0EDFD204600F0CCF940
:1008D00020B010BD1C00002041542B4D51545443F6
:1008E0004F4E4E3D302C222573222C313838332C7C
:1008F000310D0A002C0100204D51545420436F6EDD
:100900006E656374204F4B0010B515A000F0EEF833
:100910000021082314A2084601F0C4FD4FF47A74A4
:10092000204600F0A1F912A000F0E0F8082314A27C
:100930000221002001F0B6FD204600F095F913A039
:1009400000F0D4F808231AA20421002001F0AAFD27
:1009500042F2107000F088F9BDE8104001F02ABDA5
:1009600041540D0A0000000041545F5445535400A7
:1009700041542B43574D4F44453D330D0A00000071
:1009800041545F43574D4F444500000041542B43B1
:10099000574A41503D227869616F68756968756989
:1009A000222C22313233343536373839220D0A00C1
:1009B00041545F43574A41500000000030B5C1B078
:1009C0000E4D0091144603460D4901A82A68FFF711
:1009D000CBFC01A800F08AF80A2000F045F9234674
:1009E000084901A82A68FFF7BFFC01A800F07EF8BB
:1009F0004FF4FA6000F038F941B030BD1C0000201F
:100A00002C370008BC37000830B52C4CC1B02C493D
:100A100068462268FFF7A8FC6846FFF753FD82B2DC
:100A20004FF47A752B466946264801F002FA0A20EF
:100A300000F01AF9244968462268FFF795FC6846D9
:100A4000FFF740FD82B22B4669461E4801F0F1F9DE
:100A5000002108231DA2084601F024FD41F2883040
:100A600000F002F91C4968462268FFF77DFC6846E1
:100A7000FFF728FD82B22B466946124801F0D9F9EA
:100A80000A2000F0F1F8154968462268FFF76CFC6F
:100A90006846FFF717FD82B22B466946094801F008
:100AA000C8F908230EA20221002001F0FBFC284611
:100AB00000F0DAF801F07EFC41B030BD1C000020EF
:100AC000F43400082C0100201436000854657374B7
:100AD000206F6E65204F4B0084350008A03600085B
:100AE000546573742074776F204F4B0070B50546C2
:100AF000FFF7E8FC82B24FF47A7423462946044893
:100B000001F097F92046BDE8704000F0ADB8000054
:100B10002C01002010B50F48C0B00FA10268684634
:100B2000FFF722FC6846FFF7CDFC82B24FF47A74DF
:100B300023466946164801F07CF9082315A20421D2
:100B4000002001F0AFFC204600F08EF801F032FCEE
:100B500040B010BD1C00002041542B4D5154545343
:100B600055423D302C22246F632F6465766963659E
:100B7000732F25732F7379732F70726F7065727472
:100B80006965732F7265706F7274222C310D0A00C3
:100B90002C0100204D5154542053756273637269C7
:100BA0006265204F4B000000082000F087B872B645
:100BB000FEE72DE9F0410446876D00F08DF9064609
:100BC00094F835000025022806D08020606584F85E
:100BD00034500120BDE8F0812068016821F0160141
:100BE00001602068416921F080014161206C08B9F1
:100BF000A06C20B12068016821F008010160206824
:100C0000016821F0010101600CE000F065F9801B32
:100C1000052807D920206065032084F8350084F872
:100C20003450D7E720680068C007EED194F85C1014
:100C30003F208840B860012084F8350084F83450A3
:100C40000020C7E790F83510022903D080214165C4
:100C500001207047052180F835100068016821F0F7
:100C6000010101600020704770B5044600F034F9BE
:100C70000546601C02D004480078044400F02CF9BA
:100C8000401BA042FAD370BD3800002010B50828E0
:100C900009D1084C8102084822782AB1002200F0CC
:100CA00016F90020207010BD012200F010F901207B
:100CB000F8E700002C00002000080240044910B5AD
:100CC0000A68024202D00860FFF7E0FF10BD000092
:100CD000143C01402DE9F84FDFF8BCA100220125AA
:100CE00003264FF00F090AF1040BAAF1040E00BF0E
:100CF0000B6805FA02F42340A34270D10F7907F084
:100D00000307012F01D0022F16D187684FEA42084E
:100D100006FA08FC27EA0C07D1F80CC00CFA08FC0C
:100D20004CEA070CC0F808C04768A7430C79C4F325
:100D3000001494403C4344600C79E443A4070AD077
:100D4000C4684FEA420C06FA0CF7BC438F6807FAF6
:100D50000CF72743C7600C7904F00304022C12D16E
:100D6000D40800EB840CDCF820405707FF0E09FA8A
:100D700007F824EA0804D1F8108008FA07F848EACE
:100D80000408CCF8208004684FEA420C06FA0CF7FD
:100D9000BC430F7907F0030707FA0CF727430760F6
:100DA0004C6814F4403F70D03C4C276847F48047AF
:100DB0002760246822F0030704F480440094384C30
:100DC00007EB040CDCF8084897074FEA177809FA94
:100DD00008F7BC43334FB84202D1002724E054E067
:100DE000314FB84201D101271EE0304FB84201D146
:100DF000022719E02E4FB84201D1032714E02D4FEE
:100E0000B84201D104270FE02B4FB84201D105278A
:100E10000AE02A4FB84201D1062705E0284FB84220
:100E200001D1072700E0082707FA08F72743CCF885
:100E30000878DAF800405746D1F804C09C435FEACE
:100E4000CC2C00D51C433C60DBF800405F46D1F859
:100E500004C09C435FEA8C2C00D51C433C60DEF848
:100E600000407746D1F804C09C435FEA8C3C00D533
:100E70001C433C60084F083F3C68D1F804C09C43C9
:100E80005FEACC3C00D51C433C60521C102AFFF4A6
:100E90002FAFBDE8F88F0000083C01404438024005
:100EA00000300140000002400004024000080240FF
:100EB000000C0240001002400014024000180240E2
:100EC000001C02400069084000D0012070470AB1B0
:100ED000816170470904FBE70148806870470000A2
:100EE0003800002070B5040025D094F83D0000259E
:100EF00020B984F83C50204600F050F9242084F8B2
:100F00003D002068016821F001010160206801684E
:100F100041F4004101602068016821F40041016052
:100F200000F0A4FA4D4A6168914201D84C4900E0B2
:100F30004C49884201D2012070BD4B492368B0FB67
:100F4000F1F15E6826F03F060E435E6063689342EF
:100F500006D94FF4967359434FF47A73B1FBF3F10A
:100F60002368491C1E6A26F03F06314319626168F6
:100F7000914210D84900401EB0FBF1F2521CC2F35E
:100F80000B02042A01D2042022E0B0FBF1F0401C45
:100F9000C0F30B001CE0A268F2B301EBC10303EB4A
:100FA0000116431EB3FBF6F35B1C43F480431B05A1
:100FB00049D092B301EBC10202EB0111401EB0FB1C
:100FC000F1F0401CC0F30B0040F4804040F40040BE
:100FD0002168CA694CF6FF739A431043C861D4E98B
:100FE000071001432068026822F0C002114301602B
:100FF000D4E9030101432068826848F2FF339A4331
:1010000011438160D4E9050108432168CA6822F0D0
:10101000FF021043C86001E00EE016E0206801689E
:1010200041F0010101602564202084F83D00256322
:1010300084F83E50002070BD01EB4106431EB3FB17
:10104000F6F35B1CB3E70120C2E701EB4101401E50
:10105000B0FBF1F0401CC0F30B00B7E7A086010025
:1010600080841E0000093D0040420F002DE9FF4F23
:1010700083B09A46DDE9119793460446DDF8408037
:10108000FFF72AFF054694F83D0020287FD1192359
:10109000012240492046009500F0B4FF002876D197
:1010A00094F83C00012872D0012084F83C002068AC
:1010B0000168C90703D1016841F00101016020689E
:1010C000016821F400610160212084F83D00402086
:1010D00084F83E0000262664C4F82480A4F82A90F0
:1010E000608D20852C48E062CDE9007553465A4654
:1010F0002046049900F006FF70B930E02A463946D0
:10110000204601F025F858B1206C042804D120684D
:10111000016841F400710160012007B0BDE8F08F63
:10112000606A216800780861606A401C6062218DF5
:10113000491E89B22185628D521E628522685369DB
:10114000DB435B070BD469B100781061606A401C17
:101150006062208D401E2085608D401E6085208D40
:101160000028CBD12A463946204600F01FFF002830
:10117000CAD154F83D0B016841F400710160202090
:1011800004F81E09E67766770020C6E7FFE702202D
:10119000C3E70000020010000000FFFF10B586B09A
:1011A000044614216846FFF7ACF9134920688842C9
:1011B0001FD112480021026842F02002026000683C
:1011C000122200F0200005900320CDE90210CDE9A5
:1011D00000020420049069460948FFF77BFD074898
:1011E0001030016841F480010160006800F4800063
:1011F000059006B010BD0000005800403038024095
:1012000000140240024881680278114481607047EE
:10121000380000200B4810B5016841F400710160EE
:10122000016841F480610160016841F480710160EE
:10123000032000F06FF8002000F006F800F024F81A
:10124000002010BD003C024070B50D4D04464FF427
:101250007A712878B1FBF0F00A490968B1FBF0F027
:1012600000F00AFB48B9102C07D200222146501E7C
:1012700000F030F800206C6070BD012070BD0000EF
:1012800038000020440000200A4808B5016841F4F5
:1012900080410160006800F4804000900548001F14
:1012A000016841F080510160006800F080500090BA
:1012B00008BD000044380240002809DB00F01F028E
:1012C000012191404009800000F1E020C0F80011A8
:1012D00070470000F0B40E4B1B680C46C3F30223AA
:1012E000C3F10705042D00D90425191D072901D2D2
:1012F000002300E0DB1E012606FA05F1491E21400D
:1013000099409E40761E16403143F0BC01F07ABBF6
:101310000CED00E0064900F0070208684FF6FF03F5
:10132000184040EA0220034A10430860704700005A
:101330000CED00E00000FA052DE9F0470E4605002F
:1013400065D0DFF81481D8F80000F7B200F007008C
:10135000B04207D288F80070D8F8000000F007000B
:10136000B04254D128683D4C810712D5400703D5BF
:10137000206840F4E05020602878000703D52068FA
:1013800040F4604020602068A96820F0F000084325
:1013900020602878C0072DD03049686808390128B6
:1013A00012D0022813D0032811D009688907002918
:1013B0002DDA216821F0030101432160FFF78CFD44
:1013C000814641F2883A0EE009688903EFE709682F
:1013D0008901ECE7FFF780FDA0EB0901514502D937
:1013E0000320BDE8F0872068696800F00C00B0EBCE
:1013F000810FEFD1D8F80010404601F00701B1424B
:1014000007D90770006800F00700B04201D0012042
:10141000E7E72878400705D52068E96820F4E05020
:10142000084320602878000706D52068296920F441
:10143000604040EAC100206000F038F82168084AA6
:10144000C1F30311515CC8400649086006480068B2
:10145000FFF7FAFE0020C4E7003C024008380240D3
:10146000DA340008440000203C000020044805490C
:1014700000680968044AC1F38221515CC840704782
:101480004400002008380240EA34000804480549B6
:1014900000680968044AC1F34231515CC840704792
:1014A0004400002008380240EA340008154810B50E
:1014B000006810F00C02144813D04110042A0FD019
:1014C000082A0ED10F4C241F2268236802F03F0225
:1014D0005B0207D52068C0F38810A0FB010106E07D
:1014E000084610BD2168C1F38811A1FB000100234B
:1014F000FEF7C2FE2168C1F30141491C4900B0FB5F
:10150000F1F010BD083802400024F4002DE9F84F36
:1015100004006ED02078DFF84C93C007A9F10405D1
:101520004AD009F104000168C1F38101012908D002
:101530000068C0F3810002280AD1D9F800004002F7
:1015400006D52868800337D560680028E1D033E0ED
:101550006068B0F5803F10D0B0F5A02F286810D09B
:1015600020F480302860286820F48020286060689B
:10157000A8B1FFF7B1FC06460DE0286840F48030C2
:10158000F4E740F480202860F7E700BFFFF7A4FCF1
:10159000801B642873D828688003F7D50CE0FFF718
:1015A0009BFC064605E000BFFFF796FC801B642805
:1015B000F0D828688003F7D42078DFF8AC82800761
:1015C0004FF0000A3ED5A748001D016811F00C0F2E
:1015D00008D00068C0F3810002280BD1D9F80000C0
:1015E000400207D42868800716D5E068012800D19A
:1015F00012E033E1E068B8B10120C8F80000FFF75D
:101600006BFC064605E000BFFFF766FC801B022866
:10161000C0D828688007F7D52868216920F0F8002D
:1016200040EAC10028600DE0C8F800A0FFF754FCB4
:10163000064604E0FFF750FC801B02281FD82868EC
:101640008007F7D42078000722D5864F8748616944
:10165000703771B101210160FFF73EFC064604E0DE
:10166000FFF73AFC801B022809D838688007F7D5B5
:101670000EE0C0F800A0FFF72FFC064605E082E070
:10168000FFF72AFC801B02287DD838688007F7D432
:101690002078400768D5DFF8CCB100270BF13C0B70
:1016A000DBF80000C0000BD4DBF8001041F08051E3
:1016B000CBF80010DBF80000012700F0805000900C
:1016C0006B4E3068C00510D4306840F480703060D4
:1016D000FFF702FC009005E0FFF7FEFB0099401ABF
:1016E000022850D83068C005F6D55E4EA0686C362A
:1016F00001280FD00528306810D020F0010030609C
:10170000306820F004003060A068B8B1FFF7E4FB57
:1017100000900FE0306840F00100F4E740F0040072
:101720003060F7E7FFF7D8FB0099411A41F28830A3
:10173000814266D830688007F4D50EE0FFF7CCFB15
:10174000009007E0FFF7C8FB0099411A41F288308A
:10175000814256D830688007F4D42FB1DBF80010EE
:1017600021F08051CBF80010A069C8B33D49091D94
:101770000968C1F3810102294AD00228504607D0E6
:10178000C8F8600000E03CE0FFF7A6FB04463BE041
:101790004746C8F86000FFF79FFB064605E000BF1C
:1017A000FFF79AFB801B02282BD828688001F7D40A
:1017B000D4E907010843A16A2E4A490802EB014116
:1017C000626A41EA8211084394F82C1040EA0161F0
:1017D000C9F8001001203866FFF77EFB044606E0DA
:1017E0003EE000BFFFF778FB001B022809D82868FD
:1017F0008001F7D534E000BFFFF76EFB001B022825
:1018000002D90320BDE8F88F28688001F4D427E0CE
:101810000128F7D0D9F80000E26900F48001914274
:101820001CD1226A00F03F01914217D147F6C071E6
:10183000626A0140B1EB821F10D1A26A4FF0FF3300
:1018400000F4403103EB5202B1EB024F06D194F8A1
:101850002C1000F07060B0EB016F01D00120D1E7D7
:101860000020CFE70438024000004742800E474284
:10187000007000400000FFFF10B5401EB0F1807FF7
:1018800001D3012010BD4FF0E02460610F216017EB
:1018900001F0B8F80020A06107202061002010BDF1
:1018A00070B590F83C20012A32D0012480F83C40E9
:1018B000022280F83D2003685A689D6822F0700675
:1018C0000A6832435A60134B02689A4214D0B2F14C
:1018D000804F11D0104B9A420ED0104B9A420BD031
:1018E0000F4B9A4208D00F4B9A4205D00E4B9A42AA
:1018F00002D00E4B9A4204D1496825F08003194367
:10190000916080F83D40002180F83C10084670BD91
:10191000022070BD000001400004004000080040AB
:10192000000C00400004014000400140001800404D
:1019300010B5040003D094F83D0010B107E0012079
:1019400010BD002084F83C00204600F01FF8022063
:1019500084F83D00211D206800F03AFE012084F843
:10196000460084F83E0084F83F0084F8400084F884
:10197000410084F8420084F8430084F8440084F86D
:10198000450084F83D00002010BD000008B5006847
:101990000649884208D10648016841F0010101600A
:1019A000006800F00100009008BD00000000014048
:1019B0004438024070B5044690F83C0000250128E8
:1019C00017D0012684F83C60022084F83D0020688E
:1019D000826822F0770222F47F42826008685028F1
:1019E00038D00DDC20284FD005DC90B3102811D161
:1019F0004AE0022070BD302846D040280AD13BE0A2
:101A000060282FD070280DD0B0F5805F03D0B0F5DE
:101A1000005F12D0012584F83D60002084F83C006E
:101A2000284670BDCB68D1E90121206800F03CFE5A
:101A30002068816841F0770109E0CB68D1E9012194
:101A4000206800F031FE2068816841F480418160A7
:101A5000E1E719E0CA684968206800F037FE5021C4
:101A6000206806E0CA684968206800F040FE6021EE
:101A7000206800F023FECEE7CA684968206800F0BD
:101A800025FE40212068F4E7226801461046F0E771
:101A900070477047F8B5016804460868CA684B6922
:101AA00010F00F0F4FF0000559D003F0010602F4BB
:101AB0009077374365D0C10705D0D10503D5616C58
:101AC00041F001016164410705D5D90703D0616C7C
:101AD00041F002016164810705D5D90703D0616C2B
:101AE00041F004016164010707D502F02001314390
:101AF00003D0616C41F008016164616C00293AD047
:101B0000800604D5900602D5204600F031FE2068FC
:101B10004069616CC0F38010090700D460B32046AF
:101B200000F0FFFD20684069400621D52068143090
:101B300050E8001F21F0400140E80012002AF5D1D2
:101B4000E06BA8B16E490165E06BFFF77BF80028F8
:101B500011D0E06B016D01B0BDE8F040084783068D
:101B60000FD593060DD52046BDE8F84000F000BE25
:101B70002046FFF78EFFF8BD2046FFF78AFF656419
:101B8000F8BD266B2023012E7DD1C6067BD5D60657
:101B900079D508684868009048694FF00206400609
:101BA00041D5E16B086840680004000CE8D0A28DC4
:101BB0008242E5D9E085C869B0F5807F2DD02068E4
:101BC0000C3050E8001F21F4807140E80012002A18
:101BD000F5D12068143050E8001F21F0010140E8E1
:101BE0000012002AF5D12068143050E8001F21F0BF
:101BF000400140E80012002AF5D184F84230256304
:101C000020680C3050E8001F21F0100140E800125D
:101C1000002AF5D1E06BFEF7CCFF6663A08DE18D65
:101C2000401A81B22AE0A08DE18D401A81B2E08D88
:101C30000028A5D00029A3D022680C3252E8000F5A
:101C400020F4907042E80007002FF5D1206814308E
:101C500050E8002F22F0010240E80027002FF5D1C4
:101C600084F84230256320680C3050E8002F22F0C1
:101C7000100240E80023002BF5D166632046FFF7F1
:101C800007FFF8BDFFE705062BD5150629D594F803
:101C900041002128F5D1A068B0F5805F01D120690D
:101CA000B0B1206A411C2162216800784860E08C54
:101CB000401E0004000CE084E3D12068C16821F0DC
:101CC0008001C1602068C16841F04001C160D8E76F
:101CD000206A0088C0F308004860206A801C2062E7
:101CE000E5E74006CDD55006CBD5CA68204622F0A0
:101CF0004002CA6084F8413000F0EBF8C1E7000010
:101D00001327000870B5040004D094F841000025A2
:101D100010B106E0012070BD84F84050204600F06C
:101D200023F8242084F841002068C16821F4005180
:101D3000C160204600F07EFD2068016921F49041D9
:101D400001612068416921F02A0141612068C16870
:101D500041F40051C1606564202084F8410084F89A
:101D600042006563002070BDF0B587B004461421C1
:101D70006846FEF7C6FB2A4F236800222949022441
:101D8000032507262848BB4221D1264B14331F6860
:101D900047F010071F601B6803F0100305930B68E2
:101DA00043F001030B60096802AB01F001010591EA
:101DB0006902CDE9001483E864006946FEF78AFFF2
:101DC000002211462520FFF785FA252023E0174F32
:101DD000BB4222D1134B10331F6847F400371F60FA
:101DE0001B6803F4003305930B6843F001030B6099
:101DF000096802AB01F0010105910C21CDE9001445
:101E000083E864006946FEF765FF0022114626203C
:101E1000FFF760FA2620FFF74FFA07B0F0BD000089
:101E200000100140303802400000024000440040F1
:101E300070472DE9F843044690F84100984616464D
:101E40000D46202802D00220BDE8F88385B17EB17E
:101E500000206064212084F84100FFF73DF8A6844B
:101E60008146E684A0682027B0F5805F02D003E0B9
:101E70000120E9E7206910B12E4600250EE000267A
:101E80000CE08021204600F05BFDA8B9C6B116F831
:101E9000010B21684860E08C401EE084E08C4B46DA
:101EA0004FF00002CDF800800028EAD14FF0400149
:101EB000204600F045FD40B184F841700320C3E79F
:101EC00035F8020BC0F30800E3E784F84170002006
:101ED000BAE77047FEE701684A69D24352050FD45A
:101EE0006FF480624A61002140F8301F2022427363
:101EF0008173026942F0040202610173012070479C
:101F0000002070472DE9F843044600680D46DDE9DE
:101F1000089701689846164641F4807101604B4667
:101F200000224FF001112046009700F06BF848B1F5
:101F300020680068C00502D54FF4007020640320BB
:101F4000BDE8F883216805F0FE0008613B464A467B
:101F50001549204600F09EF888B9206841698069DB
:101F600000903A464946204600F0F2F848B1206C0D
:101F7000042804D12068016841F400710160012047
:101F8000DEE7F5B2B8F1010F09D02168300A086127
:101F90003A464946204600F0DBF80028E7D12068A1
:101FA00005610020CCE700000200010070B5164674
:101FB0000D4604461EE02046FFF78DFF08B10120C4
:101FC00070BD681C16D0FEF787FF801BA84200D8A2
:101FD00085B920684069C04340070BD5002044F80C
:101FE000300F20216173A073216941F0200121612C
:101FF0002073E4E720684069C0434007DBD4002039
:1020000070BD00002DE9F047984617460D4604467E
:10201000C1F30746DDF820902AE000BFB8F1FF3F8A
:1020200026D0FEF759FFA0EB0901414502D8B8F1CF
:10203000000F1DD12068012E16D0806925EA00000E
:102040000004000C12D00020B84211D1002044F846
:10205000300F20216173A073216941F020012161BB
:1020600020730120BDE8F0874069E7E70120EBE736
:102070002068012E0AD0806925EA00000004000CC7
:1020800006D00020B842C9D00020EBE74069F3E752
:102090000120F7E72DE9F047984616460D4604461D
:1020A0004FF000094FF0200AC1F3074723E02068F2
:1020B0004069C043400515D42068016841F40071AF
:1020C000016021686FF480604861C4F8309084F842
:1020D0003DA084F83E90216C41F00401216484F815
:1020E0003C9021E0701C06D0FEF7F6FEA0EB080045
:1020F000B04203D816B1012F1FD021E02068012F74
:1021000015D0806925EA00000004000C18D000BF3B
:1021100044F8309F84F80DA084F80E90216941F0B6
:102120002001216184F80C900120BDE8F08740690E
:1021300025EA00000004000CEAD12068406901E0B3
:102140002068806925EA00000004000CAFD1ECE7AC
:1021500070B516460D4604461EE02046FFF7BBFE4E
:1021600008B1012070BD681C16D0FEF7B5FE801BBB
:10217000A84200D885B920684069C04300060BD545
:10218000002044F8300F20216173A073216941F0D1
:10219000200121612073E4E720684069C043000604
:1021A000DBD4002070BD00002DE9F04186B0142181
:1021B0006846FEF7A6F934480025016841F004019D
:1021C0000160016801F004010591016841F02001FE
:1021D0000160016801F020010591016841F0800172
:1021E0000160016801F080010591016841F0010181
:1021F0000160016801F001010591016841F00801E9
:102200000160016801F008010591016841F00201D7
:10221000016000681D4F00F002004FF4005405906B
:10222000002221463846FEF752FEDFF86480A610F1
:10223000002231464046FEF74AFE009401246946DA
:1022400038460194CDE90245FEF744FD01AA11206C
:10225000009682E8310069464046FEF73BFD0820C3
:1022600000904FF48810CDE9010469460948FEF753
:1022700031FD002211460920FFF72CF80920FFF755
:102280001BF806B0BDE8F08130380240000802407B
:10229000000C0240000402400D4810B50B490160DB
:1022A0000C49416000214FF480428160C0E9031273
:1022B00041618161C1610162FEF714FE002803D013
:1022C000BDE81040FEF773BC10BD00000058004090
:1022D00048000020A086010010B586B000241748F1
:1022E00000940194029403940494134905940160AA
:1022F0004721C0E901144FF6FF71C0E9031444619E
:102300008461FFF715FB08B1FEF751FC4FF48050D4
:10231000009069460948FFF74DFB08B1FEF747FCFE
:10232000049404A905480594FFF7BAFA002801D0DF
:10233000FEF73DFC06B010BD000001409C000020EF
:102340000C4810B50A4901604FF4E13141600021A9
:1023500081600C22C160C0E904128161C161FFF794
:10236000D1FC002803D0BDE81040FEF720BC10BD12
:1023700000100140E40000200C4810B50A4901603B
:102380004FF4E1314160002181600C22C160C0E95D
:1023900004128161C161FFF7B5FC002803D0BDE8DC
:1023A0001040FEF704BC10BD004400402C0100208A
:1023B000FEE7FEE770B5002404F1B000C0B200F003
:1023C0008DF8002000F08AF8102000F087F8002532
:1023D000002000F095F86D1CEDB2802DF8D3641C40
:1023E000E4B2082CE8D370BD10B5C820FEF73CFC61
:1023F000BDE8104000F0ECBA10B50446B031C8B2E8
:1024000000F06CF8102040EA141000F067F804F0B7
:102410000F00BDE8104000F061B800002DE9F04168
:10242000203A00240D468046D6B27F2803D90020EA
:102430008D1C8046EDB2102B29460FD0FFF7DCFF34
:10244000164906EB460001EB4005285D00F058F800
:10245000641CE4B2062CF8D3BDE8F081FFF7CCFF92
:102460000F4F00BF04EB0610385C00F049F8641C05
:10247000E4B2082CF6D36D1CE9B24046FFF7BCFF6E
:102480005FF0000404EB06103844007A00F038F8DE
:10249000641CE4B2082CF5D3DEE70000122B000820
:1024A0003A2D00082DE9F041984617460E4604469D
:1024B00000250DE0434631462046FFF7AFFF0834C4
:1024C000E4B2782C02D90024B61CF6B26D1CEDB231
:1024D0007A5D002AEED1BDE8F081000001B584B03C
:1024E00001214FF4807204A88DE807000B460022FA
:1024F00078210248FEF7BAFD05B000BD4800002073
:1025000001B584B001214FF4807204A88DE8070062
:102510000B46402278210248FEF7A8FD05B000BD19
:102520004800002070477047FEF76CBE30B593B08E
:1025300030216846FDF7E5FF14210CA8FDF7E1FF07
:102540001D480025016841F080510160006800F0DD
:10255000805011901948016841F480410160006881
:10256000022400F4804011900120009000040190AA
:102570008001CDE9064008AA0420A82182E81300C2
:102580000B906846FEF7C2FF08B172B6FEE70CA9D1
:102590000F2081E831004FF4A0500F904FF480508D
:1025A000109005210CA8FEF7C7FE002801D072B6D6
:1025B000FEE713B030BD000040380240007000401C
:1025C0000248016841F470010160704788ED00E045
:1025D000F0B50268294C2A4D2A4E2B4F2B4B4FF059
:1025E000804CA04209D0604507D0A84205D0B04237
:1025F00003D0B84201D0984204D122F0700E4A684C
:1026000042EA0E02A0421BD0604519D0A84217D062
:10261000B04215D0B84213D0984211D01C4DA842F8
:102620000ED01C4DA8420BD01B4DA84208D01B4D0C
:10263000A84205D01A4DA84202D01A4DA84203D193
:1026400022F44075CA682A434D6922F080022A4369
:1026500002608A68C2620A688262A04201D098421F
:1026600001D109690163012141610169C90703D0F1
:10267000016921F001010161F0BD0000000001408D
:102680000004004000080040000C0040000401402D
:102690000040014000440140004801400018004053
:1026A000001C00400020004010B5846842EA03226C
:1026B00024F47F440A432243826010BD826822F0E2
:1026C00070020A4342F007018160704710B5036A47
:1026D000046A24F001040462846924F0F00444EAEA
:1026E000021423F00A020A438461026210BD10B58D
:1026F000036A046A24F010040462846923F0A003CE
:1027000024F4704444EA023243EA01118261016216
:1027100010BD10B5806B0021C185C184FFF7B9F9E8
:1027200010BD01680C3151E8002F22F4907241E88D
:102730000023002BF5D10168143151E8002F22F05D
:10274000010241E80023002BF5D1016B012909D1D9
:1027500001680C3151E8002F22F0100241E80023FB
:10276000002BF5D1202180F8421000210163704731
:1027700008B590F84210222901D0022008BD8268D5
:102780004FF480539A4201D1016921B1816A9A4282
:102790001BD04AB10AE00268816A5268C2F308029B
:1027A0000A80816A891C08E0026972B10268526875
:1027B00002F07F020A70816A491C8162C18D491E44
:1027C0000904090CC18503D01BE002685268F1E7D7
:1027D0000168CA6822F02002CA600168CA6822F44F
:1027E0008072CA6001684A6922F001024A612021B0
:1027F00080F8421000214163026B012A03D0FFF7E9
:1028000017FB002008BD016301680C3151E8002F5F
:1028100022F0100241E80023002BF5D101680A687C
:10282000D20602D50A6849680091818DFFF730F918
:10283000E7E7000070B5044600680169E26821F42A
:102840004051114301612169A068E269084361694F
:10285000114308432168CA6849F20C639A43024352
:10286000CA6020684169A26921F440711143416145
:1028700031492068884202D03049884202D1FEF7AF
:1028800005FE01E0FEF7F2FDE2690023192164254F
:102890003226B2F5004F626828D0A0FB0101930FE9
:1028A0009200FDF7E9FC0146B0FBF5F06FF018026D
:1028B000504301EB800006EB0010B0FBF5F000F098
:1028C000F002B1FBF5F002EB0012B1FBF5F06FF096
:1028D0001803584301EB800006EB0010B0FBF5F045
:1028E00000F00F0021681044886070BDA0FB01015A
:1028F00092185B41FDF7C0FC0146B0FBF5F0020108
:10290000B1FBF5F06FF01803584301EB800006EBC4
:10291000C000B0FBF5F000F0F80002EB4002B1FBA4
:10292000F5F0584301EB800006EBC000B0FBF5F07A
:1029300000F00700D6E7000000100140001401403D
:102940002DE9F843984617460D460446089E24E0B4
:10295000701C22D0FEF7C0FAA0EB0800B0421AD8D3
:10296000CEB12068C168490717D5802D15D0402DFC
:1029700013D00168C94309070FD4016800254068D6
:1029800000902046FFF7CDFE0820606484F8405098
:102990000120BDE8F8830320FBE72068006835EAE2
:1029A000000004D00020B842D2D00020F1E701207E
:1029B000F9E700000148FFF76DB80000E4000020CF
:1029C0000148FFF767B800002C010020FEE7000077
:1029D000FEB50024094F4FF4807501263819CDE962
:1029E000000601230022782102950548FEF73EFBF0
:1029F000641CE4B21B2CF1D3FEBD000000000020DB
:102A0000480000200907090E002804DB00F1E0203F
:102A100080F80014704700F00F0000F1E02080F80B
:102A2000141D70470021C0EB001001E0491C89B261
:102A3000B1EB400FFAD370470122D1020148FEF7F3
:102A400046BA0000000C02409AB0FEF7E3FBFFF725
:102A50006DFDFFF7A9FBFFF71FFCFFF73DFCFFF73C
:102A60006FFCFFF789FCFFF7E7FFFFF7BDFCFFF7FF
:102A7000A1FCFDF749FFFDF7CBFEFDF70DFFFEF7CB
:102A800049F8FDF7C1FF4FF47A752846FEF7ECF8D8
:102A9000144CA8461348FDF725FEF0B96679A579D0
:102AA000E77929463A463046FDF788FF2B463246FD
:102AB0000DA16846FDF758FC3A460FA10DA8FDF799
:102AC00053FC002108236A460846FFF7EBFC082365
:102AD0000DAA02210020FFF7E5FC4046FEF7C4F8EE
:102AE000D8E700002D00002054656D703A20256461
:102AF0002E2564274320000048756D696469747948
:102B00003A202564252500004FF04070E1EE100AC0
:102B100070470000000000000000002F00000000CF
:102B20000700070000147F147F1400242A7F2A1254
:102B30000062640813230036495522500000050343
:102B4000000000001C224100000041221C00001473
:102B5000083E08140008083E0808000000A06000B5
:102B60000008080808080000606000000020100845
:102B70000402003E5149453E0000427F40000042B1
:102B800061514946002141454B31001814127F1014
:102B9000002745454539003C4A4949300001710943
:102BA000050300364949493600064949291E0000F7
:102BB000363600000000563600000008142241009E
:102BC00000141414141400004122140800020151CE
:102BD000090600324959513E007C1211127C007FD7
:102BE00049494936003E41414122007F4141221C72
:102BF000007F49494941007F09090901003E4149D7
:102C0000497A007F0808087F0000417F41000020CA
:102C100040413F01007F08142241007F4040404076
:102C2000007F020C027F007F0408107F003E4141BC
:102C3000413E007F09090906003E4151215E007FA7
:102C4000091929460046494949310001017F01011E
:102C5000003F4040403F001F2040201F003F4038C1
:102C6000403F006314081463000708700807006100
:102C70005149454300007F41410000552A552A55DE
:102C8000000041417F000004020102040040404076
:102C90004040000001020400002054545478007F9A
:102CA0004844443800384444442000384444487F71
:102CB00000385454541800087E0901020018A4A4D6
:102CC000A47C007F080404780000447D400000409C
:102CD00080847D00007F102844000000417F400078
:102CE000007C04180478007C08040478003844440C
:102CF000443800FC242424180018242418FC007CE8
:102D00000804040800485454542000043F44402060
:102D1000003C4040207C001C2040201C003C4030F7
:102D2000403C004428102844001CA0A0A07C004483
:102D300064544C44141414141414000000000000D3
:102D400000000000000000000000000000F800008B
:102D50000000000000333000000000100C06100CD2
:102D60000600000000000000000040C07840C0786D
:102D70004000043F04043F040400007088FC083055
:102D80000000001820FF211E0000F008F000E018ED
:102D9000000000211C031E211E0000F008887000A6
:102DA00000001E2123241927211010160E000000F8
:102DB00000000000000000000000000000E0180417
:102DC0000200000000071820400000020418E00084
:102DD00000000040201807000000404080F08040C4
:102DE00040000202010F01020200000000F000009A
:102DF00000000101011F01010100000000000000AE
:102E0000000080B070000000000000000000000022
:102E100000000001010101010101000000000000AB
:102E20000000003030000000000000000000806062
:102E30001804006018060100000000E010080810E7
:102E4000E000000F102020100F00001010F800000C
:102E500000000020203F20200000007008080888A3
:102E60007000003028242221300000300888884873
:102E700030000018202020110E000000C02010F8A3
:102E8000000000070424243F240000F80888880874
:102E900008000019212020110E0000E01088881879
:102EA0000000000F112020110E0000380808C8385B
:102EB00008000000003F000000000070880808883B
:102EC0007000001C222121221C0000E010080810C4
:102ED000E0000000312222110F00000000C0C000FD
:102EE0000000000000303000000000000080000002
:102EF0000000000080600000000000008040201002
:102F000008000001020408102000404040404040FA
:102F1000400004040404040404000008102040805D
:102F20000000002010080402010000704808080892
:102F3000F0000000003036010000C030C828E81062
:102F4000E0000718272423140B000000C038E0001D
:102F50000000203C23020227382008F88888887067
:102F60000000203F202020110E00C0300808080873
:102F70003800071820202010080008F8080808105A
:102F8000E000203F202020100F0008F88888E80883
:102F90001000203F20202320180008F88888E80827
:102FA0001000203F200003000000C030080808384F
:102FB000000007182020221E020008F80800000860
:102FC000F808203F210101213F20000808F80808E7
:102FD00000000020203F2020000000000808F80822
:102FE0000800C08080807F00000008F888C0281892
:102FF0000800203F20012638200008F808000000C3
:103000000000203F20202020300008F8F800F8F8C9
:103010000800203F003F003F200008F830C00008B3
:10302000F808203F200007183F00E01008080810AB
:10303000E0000F10202020100F0008F808080808F2
:10304000F000203F210101010000E01008080810F5
:10305000E0000F18242438504F0008F8888888882A
:103060007000203F2000030C302000708808080802
:1030700038000038202121221C00180808F8080810
:1030800018000000203F2000000008F80800000899
:10309000F808001F202020201F000878880000C8A2
:1030A0003808000007380E010000F80800F8000892
:1030B000F800033C0700073C03000818688080689C
:1030C000180820302C03032C30200838C800C838DA
:1030D00008000000203F2000000010080808C83841
:1030E00008002038262120201800000000FE0202DF
:1030F00002000000007F40404000000C30C0000093
:103100000000000000010638C00000020202FE00BC
:103110000000004040407F00000000000402020266
:10312000040000000000000000000000000000009B
:103130000000808080808080808000020204000087
:10314000000000000000000000000000808080807F
:1031500000000019242222223F2008F8008080006D
:103160000000003F112020110E0000000080808030
:103170000000000E11202020110000000080808837
:10318000F800000E112020103F2000008080808079
:103190000000001F222222221300008080F0888875
:1031A00088180020203F20200000000080808080C0
:1031B0008000006B94949493600008F800808080F5
:1031C0000000203F210000203F2000809898000050
:1031D00000000020203F2020000000000080989880
:1031E000000000C08080807F000008F80000808020
:1031F0008000203F24022D302000000808F8000045
:1032000000000020203F20200000808080808080FF
:103210008000203F20003F20003F80800080808091
:103220000000203F210000203F200000808080809F
:103230000000001F202020201F00808000808000D0
:10324000000080FFA12020110E000000008080807F
:103250008000000E112020A0FF80808080008080F0
:10326000800020203F21200001000000808080801D
:1032700080000033242424241900008080E0808012
:1032800000000000001F202000008080000000805F
:103290008000001F202020103F20808080000080C0
:1032A000808000010E3008060100808000800080D0
:1032B00080800F300C030C300F0000808000808075
:1032C00080000020312E0E312000808080000080A0
:1032D000808080818E701806010000808080808050
:1032E00080000021302C2221300000000000807C72
:1032F000020200000000003F40400002027C80000B
:1033000000000040403F0000000000000000FF00FF
:10331000000000000000FF0000000000041464042E
:103320000CB4020242330200000000000000000062
:1033300000000000000000000000404121110905CC
:1033400003FF0305091121414000000000000000B7
:10335000000000000000000000001010D0FF9000EE
:1033600010919690F09094931000000000000000DF
:1033700000000000000000000000040300FF000146
:1033800004040404FF04040404000000000000001E
:1033900000000000000000000000008060F807044A
:1033A000E4A4A4BFA4A4E404000000000000000002
:1033B00000000000000000000000010000FF40408D
:1033C0007F4A4A4A4A4A7F4040000000000000000D
:1033D000000000000000000000000000F88888885D
:1033E00088FF88888888F80000000000000000003E
:1033F0000000000000000000000000001F08080896
:10340000087F888888889F80F00000000000000006
:10341000000000000000000000000000FE028282A8
:103420008282FA8282828282020000000000000012
:103430000000000000000000000080601F404040CD
:1034400040407F40404458404000000000000000E1
:1034500000000000000000000000008060F8070489
:10346000E4A4A4BFA4A4E404000000000000000041
:1034700000000000000000000000010000FF4040CC
:103480007F4A4A4A4A4A7F4040000000000000004C
:10349000000000000000000000000000000000002C
:1034A000000000000000000000000000000000001C
:1034B00000000000000000000000000036360000A0
:1034C00000000000000000000000000000000000FC
:1034D00000000000000000000000000000000000EC
:1034E00000000102030406070809000000000102B1
:1034F0000304000041542B4D5154545055423D306B
:103500002C22246F632F646576696365732F25739E
:103510002F7379732F70726F706572746965732F72
:103520007265706F7274222C227B5C2273657276D6
:10353000696365735C223A5B7B5C227365727669B2
:1035400063655F69645C223A5C2273746D33325C3C
:10355000225C2C5C2270726F706572746965735C9A
:10356000223A7B5C2274656D706572617475726558
:103570005C223A32307D7D5D7D222C302C300D0A6C
:103580000000000041542B4D5154545055423D30E1
:103590002C22246F632F646576696365732F25730E
:1035A0002F7379732F70726F706572746965732FE2
:1035B0007265706F7274222C227B5C227365727646
:1035C000696365735C223A5B7B5C22736572766922
:1035D00063655F69645C223A5C2273746D33325CAC
:1035E000225C2C5C2270726F706572746965735C0A
:1035F000223A7B5C2274656D7065726174757265C8
:103600005C223A32357D7D5D7D222C302C300D0AD6
:103610000000000041542B4D5154545055423D3050
:103620002C22246F632F646576696365732F25737D
:103630002F7379732F70726F706572746965732F51
:103640007265706F7274222C227B5C2273657276B5
:10365000696365735C223A5B7B5C22736572766991
:1036600063655F69645C223A5C2273746D33325C1B
:10367000225C2C5C2270726F706572746965735C79
:10368000223A7B5C2268756D69646974795C223AC0
:1036900036367D7D5D7D222C302C300D0A000000F9
:1036A00041542B4D5154545055423D302C22246FDF
:1036B000632F646576696365732F25732F73797340
:1036C0002F70726F706572746965732F7265706F99
:1036D0007274222C227B5C22736572766963657337
:1036E0005C223A5B7B5C22736572766963655F6915
:1036F000645C223A5C2273746D33325C225C2C5C15
:103700002270726F706572746965735C223A7B5CBB
:103710002268756D69646974795C223A38387D7DF8
:103720005D7D222C302C300D0A00000041542B4DC1
:103730005154545055423D302C22246F632F646500
:1037400076696365732F25732F7379732F70726F8A
:10375000706572746965732F7265706F7274222C54
:10376000227B5C2273657276696365735C223A5BC7
:103770007B5C22736572766963655F69645C223A7B
:103780005C2273746D33325C225C2C5C2270726F2D
:10379000706572746965735C223A7B5C2274656D36
:1037A00070657261747572655C223A25642E2564B9
:1037B0007D7D5D7D222C302C300D0A0041542B4D37
:1037C0005154545055423D302C22246F632F646570
:1037D00076696365732F25732F7379732F70726FFA
:1037E000706572746965732F7265706F7274222CC4
:1037F000227B5C2273657276696365735C223A5B37
:103800007B5C22736572766963655F69645C223AEA
:103810005C2273746D33325C225C2C5C2270726F9C
:10382000706572746965735C223A7B5C2268756DA1
:1038300069646974795C223A25647D7D5D7D222C02
:10384000302C300D0A000000363764343134313307
:103850006161303064313537373031396439626510
:103860005F63657368695F305F305F323032353077
:1038700033313831320000006532303262656365C1
:10388000336538306361646366616335363631377A
:103890003462383230363966393133316236643128
:1038A0006166306161626564653732343530636604
:1038B00066616433323231380000000036376434D8
:1038C000313431336161303064313537373031393B
:1038D000643962655F63657368690000373230354B
:1038E0006461323533302E7374312E696F746461C4
:1038F0002D6465766963652E636E2D6E6F727468D4
:103900002D342E6D79687561776569636C6F7564A8
:103910002E636F6D000000003839000800000020A1
:1039200048000000C4010008803900084800002059
:1039300090070000E0010008AE001040B081FFA138
:10394000A6A83FC8D300D580D805D9F1DA12D8305F
:103950008D14AF00BC3800087838000848380008DB
:10396000DC3800080000000000000000000000003B
:103970000100000010000000000000000024F4001E
:040000050800018965
:00000001FF
